:020000040000FA
:100000000C945D000C9485000C9485000C94850084
:100010000C9485000C9485000C9485000C9485004C
:100020000C9485000C9485000C9485000C9485003C
:100030000C9485000C9485000C9485000C9485002C
:100040000C94EC020C9485000C9485000C948500B3
:100050000C9485000C9485000C9485000C9485000C
:100060000C9485000C94850000000008000201003B
:100070000003040700000000000000000000000072
:10008000250028002B0000000000240027002A0083
:10009000040404040404040402020202020203032E
:1000A0000303030301020408102040800102040836
:1000B0001020010204081020E60311241FBECFEF18
:1000C000D8E0DEBFCDBF11E0A0E0B1E0ECE5F8E0A4
:1000D00002C005900D92AE31B107D9F721E0AEE133
:1000E000B1E001C01D92AF33B207E1F710E0CDE5FA
:1000F000D0E004C02197FE010E942604CC35D10730
:10010000C9F70E9436030C942C040C94000090E074
:10011000FC01EC55FF4F249180579F4FFC018491C7
:10012000882399F090E0880F991FFC01EA57FF4F50
:10013000A591B491FC01E458FF4F859194918FB73C
:10014000F894EC91E22BEC938FBF089590E0FC01C2
:10015000E859FF4F2491FC01EC55FF4F3491FC010D
:10016000E057FF4FE491EE23C9F0222339F023300A
:1001700001F1A8F4213019F1223029F1F0E0EE0F5D
:10018000FF1FE458FF4FA591B4918FB7F894EC91FD
:10019000611126C030953E233C938FBF08952730D0
:1001A000A9F02830C9F0243049F7809180008F7D74
:1001B00003C0809180008F7780938000DFCF84B56B
:1001C0008F7784BDDBCF84B58F7DFBCF8091B0006E
:1001D0008F778093B000D2CF8091B0008F7DF9CF20
:1001E0003E2BDACF3FB7F894809123019091240100
:1001F000A0912501B091260126B5A89B05C02F3FEF
:1002000019F00196A11DB11D3FBFBA2FA92F982F3C
:100210008827BC01CD01620F711D811D911D42E037
:10022000660F771F881F991F4A95D1F70895AF92DF
:10023000BF92CF92DF92EF92FF920F931F93CF93D3
:10024000DF936C017B018B01040F151FEB015E0135
:10025000AE18BF08C017D10759F06991D601ED91CA
:10026000FC910190F081E02DC6010995892B79F769
:10027000C501DF91CF911F910F91FF90EF90DF901B
:10028000CF90BF90AF900895089590E080E00895DA
:100290008F929F92AF92BF920F931F93CF93DF9352
:1002A000CDB7DEB7A1970FB6F894DEBF0FBECDBFB6
:1002B00019A2423008F44AE08E010F5D1F4F842ED0
:1002C000912CB12CA12CA50194010E940404E62FCD
:1002D000B901CA01EA3044F5E05DD801EE938D0121
:1002E000232B242B252B79F790E080E0109769F0E1
:1002F000FD0101900020E9F73197AF014A1B5B0B2C
:10030000BD0187E291E00E941701A1960FB6F89413
:10031000DEBF0FBECDBFDF91CF911F910F91BF9078
:10032000AF909F908F900895E95CD7CFCF93DF93E4
:10033000EC0160E08E810E94A60061E08E810E9447
:10034000A60060E08E810E94A6008BE891E00197F4
:10035000F1F7DF91CF910895CF92DF92EF92FF9264
:100360000F931F93CF93DF936C017C0187E0E80E1E
:10037000F11CD0E0C0E0062F10E0B8010C2E02C046
:10038000759567950A94E2F76170F70181917F0195
:100390000E94A6002196C430D10579F7C601DF91ED
:1003A000CF911F910F91FF90EF90DF90CF900C9421
:1003B0009601CF92DF92EF92FF920F931F93CF930C
:1003C000DF93EC01F62E642F8C810E94A6008D81B4
:1003D0008F3F19F060E00E94A6000F2D10E08F857E
:1003E00084FF25C06E0187E0C80ED11CF12CE12CE2
:1003F000B8010E2C02C0759567950A94E2F76170FA
:10040000F60181916F010E94A600FFEFEF1AFF0A2B
:1004100088E0E816F10461F7CE01DF91CF911F91DA
:100420000F91FF90EF90DF90CF900C949601B80160
:1004300084E0759567958A95E1F7CE010E94AC013D
:100440006F2DCE01DF91CF911F910F91FF90EF9013
:10045000DF90CF900C94AC0140E0682F87E291E0F0
:100460000C94D90181E00E942C028BE39FE101975B
:10047000F1F70895CF93DF93823029F490913601FC
:1004800098609093360180933A0110923B0180E48A
:1004900080933C0180E180933D0180E580933E01A3
:1004A00080912B010E94870080912C018F3F11F0D9
:1004B0000E94870080912D010E948700C7E2D1E051
:1004C0009E01275231408091360184FD0AC084E0AC
:1004D00090E02196281739073CF48E810E9487000E
:1004E000EFCF88E090E0F5CF8BE39DE00197F1F747
:1004F00060E080912B010E94A60060E080912D01B8
:100500000E94A60080912C018F3F19F060E00E94AC
:10051000A6008091360184FD34C063E087E291E05B
:100520000E94AC01CBE4D6E4CE010197F1F763E081
:1005300087E291E00E94AC012197F1F763E087E246
:1005400091E00E94AC0183E592E00197F1F762E04F
:1005500087E291E00E94AC018091360180620E94A6
:100560002C0284E0809337018CE00E942C020E94D0
:10057000320282E08093380186E0DF91CF910C94C3
:100580002C0280620E942C028BE496E40197F1F722
:100590008091360180620E942C0283E592E00197EF
:1005A000F1F78091360180620E942C02D5CFE09154
:1005B0003A01E23048F4E150F0E0E95DFE4F948901
:1005C000890F80680C942C02E1E0F6CF41E00E9494
:1005D000D90181E090E008951F920F920FB60F921B
:1005E00011242F933F938F939F93AF93BF93809149
:1005F0001F0190912001A0912101B0912201309121
:100600001E0123E0230F2D3758F50196A11DB11DC2
:1006100020931E0180931F0190932001A09321013C
:10062000B09322018091230190912401A091250192
:10063000B09126010196A11DB11D809323019093D5
:100640002401A0932501B0932601BF91AF919F9102
:100650008F913F912F910F900FBE0F901F90189583
:1006600026E8230F0296A11DB11DD2CF789484B540
:10067000826084BD84B5816084BD85B5826085BD9E
:1006800085B5816085BD80916E00816080936E002C
:10069000109281008091810082608093810080911E
:1006A00081008160809381008091800081608093CF
:1006B00080008091B10084608093B1008091B0008F
:1006C00081608093B00080917A00846080937A008A
:1006D00080917A00826080937A0080917A008160B4
:1006E00080937A0080917A00806880937A001092DB
:1006F000C10082E00E943A0200E010E00E94320253
:1007000081E00E94D70241E150E06CE071E087E2B5
:1007100091E00E941701C5E0D0E080913701982F49
:1007200091609093370189600E942C020E94F20030
:100730004B015C0184EFC82EDD24D394E12CF12C15
:100740000E94F200681979098A099B09683E734082
:1007500081059105A8F321E0C21AD108E108F1084A
:1007600088EE880E83E0981EA11CB11CC114D10430
:10077000E104F10429F7219781F681E00E94D70274
:1007800041E06DE287E291E00E94D9014AE06AE02F
:1007900070E080E090E00E94480182E00E94D70271
:1007A00041E06DE287E291E00E94D9014AE06FE00A
:1007B00070E080E090E00E9448010E943202011542
:1007C000110509F49BCF0E94000098CFE7E2F1E009
:1007D0001382128284E091E09183808381E084839C
:1007E0008FEF858382E0868384E0878385E080873E
:1007F00086E0818787E082871386148615861686B1
:10080000178681E00C943A02A1E21A2EAA1BBB1BA8
:10081000FD010DC0AA1FBB1FEE1FFF1FA217B307CC
:10082000E407F50720F0A21BB30BE40BF50B661FE2
:10083000771F881F991F1A9469F7609570958095A6
:1008400090959B01AC01BD01CF010895EE0FFF1FF4
:100850000590F491E02D0994F894FFCF000000007A
:10086000E602170145014401467269646765206329
:0A0870006F6E74726F6C6C6572009D
:107E0000112484B714BE81FFF0D085E080938100F7
:107E100082E08093C00088E18093C10086E0809377
:107E2000C20080E18093C4008EE0C9D0259A86E02C
:107E300020E33CEF91E0309385002093840096BBD3
:107E4000B09BFECF1D9AA8958150A9F7CC24DD24C4
:107E500088248394B5E0AB2EA1E19A2EF3E0BF2EE7
:107E6000A2D0813461F49FD0082FAFD0023811F036
:107E7000013811F484E001C083E08DD089C08234E0
:107E800011F484E103C0853419F485E0A6D080C0E4
:107E9000853579F488D0E82EFF2485D0082F10E0AE
:107EA000102F00270E291F29000F111F8ED06801E7
:107EB0006FC0863521F484E090D080E0DECF843638
:107EC00009F040C070D06FD0082F6DD080E0C81688
:107ED00080E7D80618F4F601B7BEE895C0E0D1E017
:107EE00062D089930C17E1F7F0E0CF16F0E7DF06D8
:107EF00018F0F601B7BEE89568D007B600FCFDCFD4
:107F0000A601A0E0B1E02C9130E011968C91119780
:107F100090E0982F8827822B932B1296FA010C0160
:107F200087BEE89511244E5F5F4FF1E0A038BF0790
:107F300051F7F601A7BEE89507B600FCFDCF97BE46
:107F4000E89526C08437B1F42ED02DD0F82E2BD052
:107F50003CD0F601EF2C8F010F5F1F4F84911BD097
:107F6000EA94F801C1F70894C11CD11CFA94CF0C13
:107F7000D11C0EC0853739F428D08EE10CD085E9AC
:107F80000AD08FE07ACF813511F488E018D01DD067
:107F900080E101D065CF982F8091C00085FFFCCF94
:107FA0009093C60008958091C00087FFFCCF809118
:107FB000C00084FD01C0A8958091C6000895E0E648
:107FC000F0E098E1908380830895EDDF803219F02E
:107FD00088E0F5DFFFCF84E1DECF1F93182FE3DFCA
:107FE0001150E9F7F2DF1F91089580E0E8DFEE27F6
:047FF000FF270994CA
:027FFE00040479
:00000001FF
