:020000040000FA
:100000000C9472000C949A000C949A000C949A0030
:100010000C949A000C949A000C949A000C949A00F8
:100020000C949A000C949A000C949A000C949A00E8
:100030000C949A000C949A000C949A000C949A00D8
:100040000C941F060C949A000C949A000C949A003D
:100050000C949A000C949A000C949A000C949A00B8
:100060000C949A000C949A000000000023002600D3
:100070002900005EBCE2613FDD83C29C7E20A3FDBF
:100080001F41009D23BE46DB65F88C11AF32CA5775
:10009000E97400000000240027002A00000000008E
:1000A000250028002B0004040404040404040202B4
:1000B00002020202030303030303010204081020E7
:1000C00040800102040810200102040810200000F2
:1000D0000008000201000003040700000000000007
:1000E0000000CF0911241FBECFEFD8E0DEBFCDBF87
:1000F00011E0A0E0B1E0EEE8F7E102C005900D925A
:10010000A23CB107D9F722E0A2ECB1E001C01D92F8
:10011000A631B207E1F710E0C2E7D0E004C02197B2
:10012000FE010E94BF0BC137D107C9F70E946906C3
:100130000C94C50B0C94000090E0FC01E253FF4FBF
:100140002491FC01E654FF4F3491FC01EA55FF4F26
:10015000E491EE23C9F0222339F0233001F1A8F411
:10016000213019F1223029F1F0E0EE0FFF1FE456A3
:10017000FF4FA591B4918FB7F894EC91611126C00F
:1001800030953E233C938FBF08952730A9F0283047
:10019000C9F0243049F7809180008F7D03C08091A1
:1001A00080008F7780938000DFCF84B58F7784BD08
:1001B000DBCF84B58F7DFBCF8091B0008F778093AC
:1001C000B000D2CF8091B0008F7DF9CF3E2BDACF37
:1001D000CF93DF9390E0FC01E654FF4F24918A55C2
:1001E0009F4FFC0184918823D1F090E0880F991FE4
:1001F000FC01EE56FF4FA591B491FC01E456FF4F70
:10020000C591D49161110EC09FB7F8948C91E22FE3
:10021000E0958E238C932881E223E8839FBFDF91B2
:10022000CF9108958FB7F894EC91E22BEC938FBFA8
:10023000F6CF3FB7F8948091E3019091E401A0914B
:10024000E501B091E60126B5A89B05C02F3F19F046
:100250000196A11DB11D3FBFBA2FA92F982F882746
:10026000BC01CD01620F711D811D911D42E0660F21
:10027000771F881F991F4A95D1F708958F929F92F3
:10028000AF92BF92CF92DF92EF92FF926B017C010F
:100290000E9419014B015C01C114D104E104F10475
:1002A000B9F00E941901681979098A099B09683E09
:1002B00073408105910580F321E0C21AD108E1085D
:1002C000F10888EE880E83E0981EA11CB11CE4CFD3
:1002D000FF90EF90DF90CF90BF90AF909F908F9066
:1002E0000895AF92BF92CF92DF92EF92FF920F9359
:1002F0001F93CF93DF936C017B018B01040F151FBC
:10030000EB015E01AE18BF08C017D10759F0699123
:10031000D601ED91FC910190F081E02DC601099587
:10032000892B79F7C501DF91CF911F910F91FF9034
:10033000EF90DF90CF90BF90AF900895089590E038
:1003400080E00895DC0180E0615090F09D91982755
:10035000E92FEF70F0E0EE58FF4F2491E92FE2957E
:10036000EF70F0E0EE57FF4FE491822F8E27ECCF35
:100370000895DC012C911196ED91FC91F894818106
:10038000822B81839281322F30959323928387E051
:1003900090E00197F1F781818323818383E290E0EC
:1003A0000197F1F790817894EFECF0E03197F1F755
:1003B000922381E009F480E00895FC01908101809E
:1003C000F281E02D292F209560FF14C0F8948281DE
:1003D000822382838181892B8183A3E2B0E01197FC
:1003E000F1F78281982B9283789487ED90E00197C2
:1003F000F1F70895F8948281822382838181892B89
:100400008183AFEFB0E01197F1F78281982B92834F
:1004100078948FE090E0EBCFDF92EF92FF920F9312
:100420001F93CF93DF93EC01D62EE42E08E010E06B
:10043000FF24F39461E08D2D8F2109F460E0CE015B
:100440000E94DD01FF0C01501109A1F7E11010C05D
:10045000F894E981FA81918188818095892381834B
:10046000E981FA81928188818095892382837894B9
:10047000DF91CF911F910F91FF90EF90DF90089542
:10048000EF92FF920F931F93CF93DF938C017B0129
:1004900040E065E50E940C02E70188E0E80EF11CEF
:1004A000699140E0C8010E940C02CE15DF05C1F73A
:1004B000DF91CF911F910F91FF90EF900895FC0174
:1004C00090810180F281E02DF8948181292F20957F
:1004D0008223818378943DE743E050E0315029F155
:1004E000DA011197F1F780818923C1F3F8948281B1
:1004F000822382838181892B81837894ABE7B7E063
:100500001197F1F7F894818182238183A3E1B1E00F
:100510001197F1F78081982381E009F080E07894C9
:10052000E3E6F6E03197F1F7089580E008956F92E1
:100530007F928F929F92AF92BF92CF92DF92EF9273
:10054000FF920F931F93CF93DF938C01EB01809168
:10055000F0019091F1010E945F02882309F43FC0ED
:10056000B8018091F0019091F1010E94400240E0B9
:100570006EEB8091F0019091F1010E940C027E01DE
:100580006E0189E0C80ED11C8E01A090F001B090E0
:10059000F10188E0882E912C712C66246394C501AA
:1005A0000E94B90181117628660CE1E08E1A91084B
:1005B000B1F7F80171928F01CE16DF0631F7809105
:1005C000F0019091F1010E945F02813041F4F70146
:1005D00081917F01811105C0E017F107C1F790E01B
:1005E00008C068E0CE010E94A20191E0288528138E
:1005F000F6CF892FDF91CF911F910F91FF90EF9050
:10060000DF90CF90BF90AF909F908F907F906F9032
:100610000895CF93DF93CDB7DEB729970FB6F8943F
:10062000DEBF0FBECDBFBE016F5F7F4F0E9497023E
:10063000882331F08D818F33A9F020F48F31A1F020
:1006400080E007C08F3521F08F37D1F78CE001C0F3
:100650008BE029960FB6F894DEBF0FBECDBFDF91B9
:10066000CF9108958AE0F5CF89E0F3CF8F929F92E2
:10067000AF92BF920F931F93CF93DF93CDB7DEB7A7
:10068000A1970FB6F894DEBF0FBECDBF19A24230BE
:1006900008F44AE08E010F5D1F4F842E912CB12C7F
:1006A000A12CA50194010E94890BE62FB901CA0172
:1006B000EA3044F5E05DD801EE938D01232B242B25
:1006C000252B79F790E080E0109769F0FD0101900B
:1006D0000020E9F73197AF014A1B5B0BBD018EEF9C
:1006E00091E00E947101A1960FB6F894DEBF0FBE93
:1006F000CDBFDF91CF911F910F91BF90AF909F9091
:100700008F900895E95CD7CF009769F0FC010190C4
:100710000020E9F73197AF01481B590BBC018EEF60
:1007200091E00C94710190E080E00895BF92CF9227
:10073000DF92EF92FF920F931F93CF93DF93EC0121
:10074000B62EC72E8D85811105C0CE010E945F0295
:1007500081110EC01B861D861C8680E0DF91CF9123
:100760001F910F91FF90EF90DF90CF90BF90089571
:1007700040E060EFCE010E940C0201E0E12CD12CA0
:1007800011E0CE010E94B901F82ECE010E94B901FC
:1007900091E0F91218C0813099F51134D8F2DB8656
:1007A000D11002C081E08D878B81882399F2239636
:1007B000EB2DFC2DCF01089629912193E817F9071D
:1007C000D9F781E0CBCFEE2DF0E0F8120FC08B858A
:1007D0001817A0F4DE01AE0FBF1F13968C91802373
:1007E00079F4F12C193008F41C87D12EEC0FFD1F81
:1007F0008381902F9095892383830AC08113F1CF41
:10080000FE01EE0DF11D8381802B8383FF24F39481
:100810006F2DCE010E94DD011F5F000F11F4E394E4
:1008200001E087E08E1508F0ACCFB7CFFF920F93B1
:100830001F93CF93DF938C01F62EE091F001F0919E
:10084000F10113861586148612861186108617828A
:100850001682158214821382C0E0B8018091F001E3
:100860009091F1010E949603D82F882329F0FC165D
:1008700029F0CF5FFC1688F7D0E008C067E0C80118
:100880000E94A201F80197818913F3CF8D2FDF9188
:10089000CF911F910F91FF900895CF93DF93EC01BB
:1008A00060E08E810E949C0061E08E810E949C002D
:1008B00060E08E810E949C008BE891E00197F1F747
:1008C000DF91CF910895CF92DF92EF92FF920F9335
:1008D0001F93CF93DF936C017C0187E0E80EF11C3E
:1008E000D0E0C0E0062F10E0B8010C2E02C07595D4
:1008F00067950A94E2F76170F70181917F010E9488
:100900009C002196C430D10579F7C601DF91CF91C3
:100910001F910F91FF90EF90DF90CF900C944D04BA
:10092000CF92DF92EF92FF920F931F93CF93DF93BB
:10093000EC01F62E642F8C810E949C008D818F3FEC
:1009400019F060E00E949C000F2D10E08F8584FF5D
:1009500025C06E0187E0C80ED11CF12CE12CB80136
:100960000E2C02C0759567950A94E2F76170F60146
:1009700081916F010E949C00FFEFEF1AFF0A88E04F
:10098000E816F10461F7CE01DF91CF911F910F912D
:10099000FF90EF90DF90CF900C944D04B80184E06D
:1009A000759567958A95E1F7CE010E9463046F2DD6
:1009B000CE01DF91CF911F910F91FF90EF90DF90CB
:1009C000CF900C94630440E0682F8EEF91E00C947C
:1009D000900481E00E94E3048BE39FE10197F1F72B
:1009E0000895CF93DF93823029F490910D0298609F
:1009F00090930D02809311021092120280E4809372
:100A0000130280E18093140280E58093150261E077
:100A1000809102020E94E800809103028F3F19F04A
:100A200061E00E94E80061E0809104020E94E80019
:100A3000CEEFD1E09E012E5F314080910D0284FD0A
:100A40000BC084E090E021962817390744F461E058
:100A50008E810E94E800EECF88E090E0F4CF8BE337
:100A60009DE00197F1F760E0809102020E949C00F6
:100A700060E0809104020E949C00809103028F3FFD
:100A800019F060E00E949C0080910D0284FD34C04A
:100A900063E08EEF91E00E946304CBE4D6E4CE01E4
:100AA0000197F1F763E08EEF91E00E9463042197D4
:100AB000F1F763E08EEF91E00E94630483E592E03A
:100AC0000197F1F762E08EEF91E00E94630480915C
:100AD0000D0280620E94E30484E080930E028CE0A9
:100AE0000E94E3040E94E90482E080930F0286E002
:100AF000DF91CF910C94E30480620E94E3048BE4C5
:100B000096E40197F1F780910D0280620E94E30460
:100B100083E592E00197F1F780910D0280620E94D7
:100B2000E304D5CF643008F063E0909111026917B7
:100B300010F06FEF690FE62FF0E0E250FE4F94895E
:100B4000890F80680C94E30441E00E94900481E0E6
:100B500090E00895CF92DF92EF92FF926C01990F8F
:100B6000EE08FF08F7FE16C041E06DE28EEF91E05F
:100B70000E94900466277727CB016C197D098E09A6
:100B80009F094AE00E9436030196FF90EF90DF90A4
:100B9000CF9008954AE0C701B601FF90EF90DF9033
:100BA000CF900C943603CF93DF93EC010E94E904BD
:100BB00060E080E00E94920580E291E00E94840360
:100BC000CE010E94AA0561E080E00E949205CC0F50
:100BD000DD1FCA5FDE4F888199810E94840360E136
:100BE00077E280E090E0DF91CF910C943E01EF92AC
:100BF000FF920F931F93CF93DF93EC01162F042FD7
:100C00007901642F812F0E949205CE010E948403F6
:100C1000FE0101900020E9F73197CF018C1B9D0B5D
:100C2000602F810F0E949205F70180819181DF91F1
:100C3000CF911F910F91FF90EF900C94AA051F92F6
:100C40000F920FB60F9211242F933F938F939F9380
:100C5000AF93BF938091DF019091E001A091E101FA
:100C6000B091E2013091DE0123E0230F2D3758F5DA
:100C70000196A11DB11D2093DE018093DF019093A9
:100C8000E001A093E101B093E2018091E301909132
:100C9000E401A091E501B091E6010196A11DB11D0D
:100CA0008093E3019093E401A093E501B093E60102
:100CB000BF91AF919F918F913F912F910F900FBE58
:100CC0000F901F90189526E8230F0296A11DB11DC5
:100CD000D2CFCF93DF93CDB7DEB729970FB6F89475
:100CE000DEBF0FBECDBF789484B5826084BD84B56D
:100CF000816084BD85B5826085BD85B5816085BD17
:100D000080916E00816080936E00109281008091CE
:100D10008100826080938100809181008160809356
:100D20008100809180008160809380008091B1007B
:100D300084608093B1008091B00081608093B000A6
:100D400080917A00846080937A0080917A0082603A
:100D500080937A0080917A00816080937A008091FC
:100D60007A00806880937A001092C10082E00E942D
:100D7000F10460E080E00E94920587E291E00E9429
:100D8000840361E080E00E94920588E391E00E9484
:100D9000840360ED77E080E090E00E943E010E94D5
:100DA000E90460E080E00E94920589E491E00E94FD
:100DB000840361E083E00E94920589E591E00E944E
:100DC000840368EB7BE080E090E00E943E010E949B
:100DD000E90460E08EE00E94E80061E083E00E94A8
:100DE000E800E091F001F091F10113861586148678
:100DF000128611861086178216821582148213823B
:100E00001092EE011092EF0111E0BE016F5F7F4F73
:100E10008091F0019091F1010E949603882309F4DA
:100E20005FC067E0CE0101960E94A20198858913F8
:100E3000ECCF8091EE018F5F8093EE018981883243
:100E400031F008F044C0803111F08232F1F6809127
:100E5000EF018F5F8093EF018091E701811128C03E
:100E60008091F0019091F1010E945F02BE016F5FDD
:100E70007F4F8091F0019091F1010E94400240E08B
:100E800064EB8091F0019091F1010E940C0280913D
:100E9000F0019091F1010E94B901082F8091F001B9
:100EA0009091F1010E945F02011102C01093E701CD
:100EB0008981803199F0CE0101960E9409039091B9
:100EC000EA01981708F0A1CF8093EA019ECF8B33F7
:100ED00009F4BDCF823409F098CFB9CF8CE0EFCFC1
:100EE0008091EE0190E09093D1018093D00120EDAC
:100EF00031E050E040E061E070E084E691E00E9483
:100F0000F7051A8219828091E701882321F081E098
:100F100090E09A8389839E012F5F3F4F50E040E02D
:100F200061E070E088E691E00E94F70560E086ED00
:100F300091E00E941604811104C082E090E00E94BA
:100F4000D30506ED11E0F80181918F01803150F455
:100F500030E020E050E040E069E070E08DE691E0B4
:100F60000E94F705F8013197608170E090E080E021
:100F70004AE00E943603F1E00E3D1F0721F7809101
:100F8000D601803109F46FC0BE016F5F7F4F86EDDF
:100F900091E00E949702882309F465C08D818F310A
:100FA00009F461C08FE18D838091F0019091F1018E
:100FB0000E945F0266ED71E08091F0019091F10175
:100FC0000E94400240E06EE48091F0019091F101B6
:100FD0000E940C0240E06B818091F0019091F10140
:100FE0000E940C0240E06C818091F0019091F1012F
:100FF0000E940C028091D601803141F040E06D8169
:101000008091F0019091F1010E940C028091F00119
:101010009091F1012091ED01222319F10E945F02CC
:10102000882309F166ED71E08091F0019091F10162
:101030000E9440024091E70168E48091F0019091A4
:10104000F1010E940C028091E701811130C064E13E
:1010500070E080E090E00E943E018091F00190916C
:10106000F1010E945F0289E08093EA018091EE0124
:101070008230C0F110E08091EE01181798F5809150
:10108000EA018C3079F1612FCE0101960E9416049D
:101090008981803129F1CE0101960E940903909146
:1010A000EA01981710F48093EA011F5FE4CF809162
:1010B000E801882329F060E08091E9010E949C000A
:1010C00064E170E080E090E00E943E018091E801E0
:1010D000882319F261E08091E9010E949C00BDCF54
:1010E0008CE0DDCF68EE73E080E090E00E943E018E
:1010F000B0E4FB2E00E010E00E94E9048091F001D2
:101100009091F1010E945F0240E06CEC8091F0014F
:101110009091F1010E940C024091E70164E48091FA
:10112000F0019091F1010E940C028091EB01882363
:1011300091F1E091EA018091EC01882309F488C0E3
:101140008091E701811184C08FB7F8948090DF010E
:101150009090E001A090E101B090E2018FBF8091FA
:10116000F0019091F1010E94B9018130A1F02FB7F7
:10117000F8948091DF019091E001A091E101B0919C
:10118000E2012FBF88199909AA09BB098E3E924036
:10119000A105B10520F3F0927C0080917A00806473
:1011A00080937A0080917A0086FDFCCF8091780050
:1011B00060917900762F682F072E000C880B990B11
:1011C0000E947C0A2091D2013091D3014091D40138
:1011D0005091D5010E94E00A20E030E040E85AE357
:1011E0000E94E00A0E94440A70930101609300018A
:1011F0006230710509F454C06330710589F480913F
:1012000002019091030101979093030180930201E1
:1012100061E080E00E94920581E791E00E948403F2
:1012200022E031E041E050E061E070E085E791E0EC
:101230000E94F705BE016F5F7F4F86ED91E00E942F
:10124000970281113DC060E070E08EEF92EC77C0B4
:10125000E9508EEE92E0E33038F4F0E0EE0FFF1F3D
:10126000E65EFE4F808191814C01990FAA08BB0870
:101270008091E801882329F060E08091E9010E94D3
:101280009C00C501B4010E943E018091E8018823C1
:1012900009F481CF61E08091E9010E949C007BCF3D
:1012A0008091020190910301019690930301809334
:1012B000020161E080E00E94920583E791E0AECFF9
:1012C0006A8170E0762F6627770F770F770F298175
:1012D00048E0249F90011124262B372B8091D601C2
:1012E0008031E1F468856623C9F070E08F81FB01ED
:1012F000E81BF109CF019695982F88279795879538
:101300000E94750BCB018097B90153E0660F771FE0
:101310005A95E1F760789C01260F371F2138F4EECB
:101320003F070CF490CFB901330F880B990B0E9443
:101330007C0A20E030E040E05CE30E94E00A0E948A
:10134000440A709305016093040161387F4F21F4D2
:1013500083E090E00E94D305809104019091050103
:1013600081389F4F89F481E090E00E94D30568ECBA
:1013700070E080E090E00E943E010115110509F443
:10138000BBCE0E940000B8CE24E031E050E040E047
:1013900061E070E089E791E00E94F705E8CFCF9324
:1013A000EEEFF1E01382128282E191E0918380837B
:1013B00088E084838FEF8583C9E0C68384E08783D8
:1013C00085E0808786E0818787E0828713861486A0
:1013D00015861686178681E00E94F10460E082E09F
:1013E0000E94E800ECEBF0E0E491A2ECB1E0EC93B9
:1013F000E8EAF0E0E491F0E0EE0FFF1FE859FF4F5C
:101400008591949112969C938E9311971B961C92A2
:101410001B971D961C921D971C961C921C971A9642
:101420001C921A9719961C92199718961C92189745
:1014300017961C92179716961C92169715961C9243
:10144000159714961C92149713961C921397E7EE17
:10145000F1E0168A158A1182B287A1871782108659
:101460001082C38381E084838583868382E79CE145
:10147000A7ECB0E48093D2019093D301A093D40160
:10148000B093D501CF9108950E944B0A6894B11191
:101490000C94DA0A08950E94BF0A88F09F5798F0CA
:1014A000B92F9927B751B0F0E1F0660F771F881F69
:1014B000991F1AF0BA95C9F714C0B13091F00E9483
:1014C000D90AB1E008950C94D90A672F782F88279C
:1014D000B85F39F0B93FCCF3869577956795B395AA
:1014E000D9F73EF490958095709561957F4F8F4F19
:1014F0009F4F0895E89409C097FB3EF4909580951E
:10150000709561957F4F8F4F9F4F9923A9F0F92FC9
:1015100096E9BB279395F695879577956795B79547
:10152000F111F8CFFAF4BB0F11F460FF1BC06F5F2D
:101530007F4F8F4F9F4F16C0882311F096E911C03F
:10154000772321F09EE8872F762F05C0662371F060
:1015500096E8862F70E060E02AF09A95660F771F74
:10156000881FDAF7880F9695879597F9089557FDA4
:101570009058440F551F59F05F3F71F04795880F01
:1015800097FB991F61F09F3F79F087950895121698
:1015900013061406551FF2CF4695F1DF08C0161644
:1015A00017061806991FF1CF8695710561050894F5
:1015B0000895E894BB2766277727CB0197F908950C
:1015C0000E94F30A0C94640B0E94560B38F00E94A0
:1015D0005D0B20F0952311F00C944D0B0C94530BE4
:1015E00011240C94DA0A0E94B70A70F3959FC1F394
:1015F000950F50E0551F629FF001729FBB27F00DC1
:10160000B11D639FAA27F00DB11DAA1F649F662715
:10161000B00DA11D661F829F2227B00DA11D621F64
:10162000739FB00DA11D621F839FA00D611D221F1E
:10163000749F3327A00D611D231F849F600D211D02
:10164000822F762F6A2F11249F5750409AF0F1F085
:1016500088234AF0EE0FFF1FBB1F661F771F881FEE
:1016600091505040A9F79E3F510580F00C944D0BCE
:101670000C94DA0A5F3FE4F3983ED4F386957795AD
:101680006795B795F795E7959F5FC1F7FE2B880F94
:10169000911D9695879597F9089597F99F6780E82A
:1016A00070E060E008959FEF80EC089500240A94B4
:1016B0001616170618060906089500240A9412162D
:1016C0001306140605060895092E0394000C11F460
:1016D000882352F0BB0F40F4BF2B11F460FF04C00D
:1016E0006F5F7F4F8F4F9F4F089597FB072E16F424
:1016F000009407D077FD09D00E94AB0B07FC05D002
:101700003EF4909581959F4F0895709561957F4F18
:101710000895A1E21A2EAA1BBB1BFD010DC0AA1F32
:10172000BB1FEE1FFF1FA217B307E407F50720F04A
:10173000A21BB30BE40BF50B661F771F881F991FC5
:101740001A9469F760957095809590959B01AC010E
:10175000BD01CF010895AA1BBB1B51E107C0AA1F01
:10176000BB1FA617B70710F0A61BB70B881F991F42
:101770005A95A9F780959095BC01CD010895EE0F7B
:10178000FF1F0590F491E02D0994F894FFCF050018
:10179000F1FFF6FF7D018E019F01B0010000000006
:1017A000A40571019F019E015E00BC007701457296
:1017B000726F7220002020202020467269646765C5
:1017C000202020202000202020436F6E74726F6C38
:1017D0006C65722020200053657267657920426530
:1017E0007A75676C697900636F64656E762E746FC5
:1017F000700053433A0050504D3A0044413A002D96
:10180000002B0054543A0054433A00556E6B6E6FEF
:10181000776E206572726F7220202000545320640E
:101820006576696365206572726F7220005453207B
:1018300061646472657373206572726F72005453D1
:1018400020646973636F6E6E656374656420000065
:107E0000112484B714BE81FFF0D085E080938100F7
:107E100082E08093C00088E18093C10086E0809377
:107E2000C20080E18093C4008EE0C9D0259A86E02C
:107E300020E33CEF91E0309385002093840096BBD3
:107E4000B09BFECF1D9AA8958150A9F7CC24DD24C4
:107E500088248394B5E0AB2EA1E19A2EF3E0BF2EE7
:107E6000A2D0813461F49FD0082FAFD0023811F036
:107E7000013811F484E001C083E08DD089C08234E0
:107E800011F484E103C0853419F485E0A6D080C0E4
:107E9000853579F488D0E82EFF2485D0082F10E0AE
:107EA000102F00270E291F29000F111F8ED06801E7
:107EB0006FC0863521F484E090D080E0DECF843638
:107EC00009F040C070D06FD0082F6DD080E0C81688
:107ED00080E7D80618F4F601B7BEE895C0E0D1E017
:107EE00062D089930C17E1F7F0E0CF16F0E7DF06D8
:107EF00018F0F601B7BEE89568D007B600FCFDCFD4
:107F0000A601A0E0B1E02C9130E011968C91119780
:107F100090E0982F8827822B932B1296FA010C0160
:107F200087BEE89511244E5F5F4FF1E0A038BF0790
:107F300051F7F601A7BEE89507B600FCFDCF97BE46
:107F4000E89526C08437B1F42ED02DD0F82E2BD052
:107F50003CD0F601EF2C8F010F5F1F4F84911BD097
:107F6000EA94F801C1F70894C11CD11CFA94CF0C13
:107F7000D11C0EC0853739F428D08EE10CD085E9AC
:107F80000AD08FE07ACF813511F488E018D01DD067
:107F900080E101D065CF982F8091C00085FFFCCF94
:107FA0009093C60008958091C00087FFFCCF809118
:107FB000C00084FD01C0A8958091C6000895E0E648
:107FC000F0E098E1908380830895EDDF803219F02E
:107FD00088E0F5DFFFCF84E1DECF1F93182FE3DFCA
:107FE0001150E9F7F2DF1F91089580E0E8DFEE27F6
:047FF000FF270994CA
:027FFE00040479
:00000001FF
